{
  "address": "0x6251A0a312876cd233941E3B12ef4e050Ece157A",
  "abi": [
    {
      "inputs": [],
      "stateMutability": "payable",
      "type": "constructor"
    },
    {
      "inputs": [],
      "name": "NotEnoughEther",
      "type": "error"
    },
    {
      "anonymous": false,
      "inputs": [
        {
          "indexed": true,
          "internalType": "address",
          "name": "player",
          "type": "address"
        },
        {
          "indexed": false,
          "internalType": "uint256",
          "name": "amount",
          "type": "uint256"
        },
        {
          "indexed": false,
          "internalType": "uint256",
          "name": "roll",
          "type": "uint256"
        }
      ],
      "name": "Roll",
      "type": "event"
    },
    {
      "anonymous": false,
      "inputs": [
        {
          "indexed": false,
          "internalType": "address",
          "name": "winner",
          "type": "address"
        },
        {
          "indexed": false,
          "internalType": "uint256",
          "name": "amount",
          "type": "uint256"
        }
      ],
      "name": "Winner",
      "type": "event"
    },
    {
      "inputs": [],
      "name": "nonce",
      "outputs": [
        {
          "internalType": "uint256",
          "name": "",
          "type": "uint256"
        }
      ],
      "stateMutability": "view",
      "type": "function"
    },
    {
      "inputs": [],
      "name": "prize",
      "outputs": [
        {
          "internalType": "uint256",
          "name": "",
          "type": "uint256"
        }
      ],
      "stateMutability": "view",
      "type": "function"
    },
    {
      "inputs": [],
      "name": "rollTheDice",
      "outputs": [],
      "stateMutability": "payable",
      "type": "function"
    },
    {
      "stateMutability": "payable",
      "type": "receive"
    }
  ],
  "transactionHash": "0x0863918eb988e2f6c8f28c0f247d4b5e2fe47a089abf1a24c1fb3d6749ede0ac",
  "args": [],
  "numDeployments": 1,
  "solcInputHash": "7dac5f0d87d02cf044c71d5d00276d66",
  "bytecode": "0x60806040526000808055600155610014610019565b610082565b606461002647600a610035565b6100309190610060565b600155565b808202811582820484141761005a57634e487b7160e01b600052601160045260246000fd5b92915050565b60008261007d57634e487b7160e01b600052601260045260246000fd5b500490565b6104d7806100916000396000f3fe6080604052600436106100385760003560e01c80637d789dee14610044578063affed0e01461004e578063e3ac5d261461007657600080fd5b3661003f57005b600080fd5b61004c61008c565b005b34801561005a57600080fd5b5061006460005481565b60405190815260200160405180910390f35b34801561008257600080fd5b5061006460015481565b66071afd498d00003410156100b457604051638a0d377960e01b815260040160405180910390fd5b60006100c160014361038b565b409050600081306000546040516020016101009392919092835260609190911b6bffffffffffffffffffffffff19166020830152603482015260540190565b60408051601f198184030181529190528051602090910120905060006101276010836103ba565b9050610177604051806040016040528060018152602001600960f81b815250604051806040016040528060128152602001711010102234b1b29023b0b6b2902937b6361d60711b815250836102e0565b600080549080610186836103ce565b90915550606490506101993460286103e7565b6101a391906103fe565b600160008282546101b49190610412565b9091555050604080513481526020810183905233917f61cfee61b80d296eb67d23740a2278ba7f3d857fe9aa27f1ed9fe4882e254360910160405180910390a2600581111561020257505050565b600154604051600090339083908381818185875af1925050503d8060008114610247576040519150601f19603f3d011682016040523d82523d6000602084013e61024c565b606091505b50509050806102985760405162461bcd60e51b81526020600482015260146024820152732330b4b632b2103a379039b2b7321022ba3432b960611b604482015260640160405180910390fd5b6102a061032c565b60408051338152602081018490527f9c2270628a9b29d30ae96b6c4c14ed646ee134febdce38a5b77f2bde9cea2e20910160405180910390a15050505050565b6103278383836040516024016102f89392919061046b565b60408051601f198184030181529190526020810180516001600160e01b0316635821efa160e01b179052610348565b505050565b606461033947600a6103e7565b61034391906103fe565b600155565b61035181610354565b50565b60006a636f6e736f6c652e6c6f679050600080835160208501845afa505050565b634e487b7160e01b600052601160045260246000fd5b8181038181111561039e5761039e610375565b92915050565b634e487b7160e01b600052601260045260246000fd5b6000826103c9576103c96103a4565b500690565b6000600182016103e0576103e0610375565b5060010190565b808202811582820484141761039e5761039e610375565b60008261040d5761040d6103a4565b500490565b8082018082111561039e5761039e610375565b6000815180845260005b8181101561044b5760208185018101518683018201520161042f565b506000602082860101526020601f19601f83011685010191505092915050565b60608152600061047e6060830186610425565b82810360208401526104908186610425565b91505082604083015294935050505056fea26469706673582212207bed533f8733a3615857eb8b100e14b3cec97d39ffaf1fa8540574cb02c8a05264736f6c63430008110033",
  "devdoc": {
    "kind": "dev",
    "methods": {},
    "version": 1
  },
  "userdoc": {
    "kind": "user",
    "methods": {},
    "version": 1
  },
  "storageLayout": {
    "storage": [
      {
        "astId": 140,
        "contract": "contracts/DiceGame.sol:DiceGame",
        "label": "nonce",
        "offset": 0,
        "slot": "0",
        "type": "t_uint256"
      },
      {
        "astId": 143,
        "contract": "contracts/DiceGame.sol:DiceGame",
        "label": "prize",
        "offset": 0,
        "slot": "1",
        "type": "t_uint256"
      }
    ],
    "types": {
      "t_uint256": {
        "encoding": "inplace",
        "label": "uint256",
        "numberOfBytes": "32"
      }
    }
  }
}